:030000000227B321
:0C27B300787FE4F6D8FD75814D0227FA0E
:10189E002474656D702C002E002C0030002C30004E
:1018AE0062003A0025006F666620202020000003AB
:1018BE00050911FF118905C300E000F000F80000D2
:1018CE0000000000004428FF11AA440000000000A0
:1018DE0000000000000000000000000000000000FA
:1018EE0000000000000000000000000000000000EA
:1018FE0000000000000000000000000000000000DA
:10190E0000000000000000008301384482929274AF
:10191E000183000000000000007C44FF017D7D7DFE
:10192E00017D7D7D7D017D7D7D7D7D01FF00000042
:10193E000000000100010001000100010001000093
:10194E000000000000000001010000000000000087
:10195E000000000000000000000000000000000079
:10196E000000000000000000000000000000000069
:10197E000000000000000000000000000000000059
:10198E000000000000000000010100000000000047
:10199E000101000000000000000000010101010132
:1019AE00010101010101010101010101010000001C
:1019BE000000000000000000000000000000000019
:1019CE00000000000000000000003F3F0303F3137F
:1019DE0011111111111101F11161810101018161C9
:1019EE0011F1010101014141F10101010101C12189
:1019FE001111111121C1010101014141F101010139
:101A0E00010101010101011111111111D333030360
:101A1E003F3F00000000000000000000000000003A
:101A2E0000000000000000000000000000000000A8
:101A3E000000000000000000000000000000000098
:101A4E0000000000000000000000E0E000007F0148
:101A5E00010101010100007F0000010618060100CE
:101A6E00007F0000000040407F40400000001F202B
:101A7E0040404040201F0000000040407F4040009A
:101A8E00000000600000000040300C030000000069
:101A9E00E0E0000000000000000000000000000078
:101AAE000000000000000000000000000000000028
:101ABE000000000000000000000000000000000018
:101ACE0000000000000000000000070706060606E2
:101ADE000404048444444484040484444444840438
:101AEE00040484C4040404048444444484040404A8
:101AFE000404844444448404040404048444444498
:101B0E00840404844444448404040404060606063F
:101B1E0007070000000000000000000000000000A9
:101B2E0000000000000000000000000000000000A7
:101B3E000000000000000000000000000000000097
:101B4E000000000000000000000000000000000087
:101B5E00000000101814121100000F1010100F00CA
:101B6E000000101F10000000081012120D000018C7
:101B7E0000000D1212120D000018000010181412A1
:101B8E0011000010181412110000000000000000D7
:101B9E000000000000000000000000000000000037
:101BAE000000000000000000000000000000000027
:101BBE000000000000000000000000000000000017
:101BCE000000000000000000000000000000000007
:101BDE0000000000000000000000000000000000F7
:101BEE0000000000000000000000808080808080E7
:101BFE0080800000000000000000000000000000D7
:101C0E0000000000000000000000000000000000C6
:101C1E0000000000000000000000000000000000B6
:101C2E000000000000000000000000000000007F27
:101C3E00030C300C037F00003854545800007C0411
:101C4E00047800003C40407C0000000000000000D2
:101C5E000000000000000000000000000000000076
:101C6E0000000000000000000000FFAAAAAA280839
:101C7E0000FF000000000000000000000000000057
:101C8E000000000000000000000000000000000046
:101C9E00000000000000007F030C300C037F0000EA
:101CAE00264949493200007F020408107F000003D4
:101CBE00050911FF118905C300E000F000F80000CE
:101CCE0000000000004428FF11AA4400000000009C
:101CDE0000000000000000000000000000000000F6
:101CEE0000000000000000000000000000000000E6
:101CFE0000000000000000000000000000000000D6
:101D0E0000000000000000008301384482929274AB
:101D1E000183000000000000007C44FF017D7D7DFA
:101D2E007D017D7D7D7D017D7D7D7D01FF0000003E
:101D3E00000000010001000100010001000100008F
:101D4E000000000000000001010000000000000083
:101D5E000000000000000000000000000000000075
:101D6E000000000000000000000000000000000065
:101D7E000000000000000000000000000000000055
:101D8E000000000000000000010100000000000043
:101D9E00010100000000000000000001010101012E
:101DAE000101010101010101010101010100000018
:101DBE000000000000000000000000000000000015
:101DCE0000000000000000000000000000F80808FD
:101DDE00080808080800F8186080000000806018E5
:101DEE00F80000002020F8000000000000E01008BD
:101DFE0008080810E00000002020F8000000000095
:101E0E000000000000000008080808088868180094
:101E1E0000000000000000000000000000000000B4
:101E2E0000000000000000000000000000000000A4
:101E3E000000000000000000000000000000000094
:101E4E00000000000000000000000000007F010103
:101E5E000101010100007F000001061806010000CB
:101E6E007F00000040407F4040000000001F2040E7
:101E7E00404040201F00000040407F4040000000D6
:101E8E000000600000000000006018060100000065
:101E9E000000000000000000000000000000000034
:101EAE000000000000000000000000000000000024
:101EBE000000000000000000000000000000000014
:101ECE000000000000000000000000000000000004
:101EDE0000000040202020C00000E0202020E00074
:101EEE00000040E00000000060202020E000000024
:101EFE000000E0202020E000000000004020202014
:101F0E00C0000040202020C00000000000000000A3
:101F1E0000000000000000000000000000000000B3
:101F2E0000000000000000000000000000000000A3
:101F3E000000000000000000000000000000000093
:101F4E000000000000000000000000000000000083
:101F5E000000000C0A0A090C00000F0808080F0008
:101F6E000000080F080000000C0809090E00000C04
:101F7E0000000F0909090F00000C00000C0A0A09E5
:101F8E000C00000C0A0A090C000000000000000002
:101F9E000000000000000000000000000000000033
:101FAE000000000000000000000000000000000023
:101FBE000000000000000000000000000000000013
:101FCE000000000000000000000000000000000003
:101FDE0000000000000000000000000000000000F3
:101FEE0000000000000000000000808080808080E3
:101FFE0080800000000000000000000000000000D3
:10200E0000000000000000000000000000000000C2
:10201E0000000000000000000000000000000000B2
:10202E000000000000000000000000000000007F23
:10203E00030C300C037F00003854545800007C040D
:10204E00047800003C40407C0000000000000000CE
:10205E000000000000000000000000000000000072
:10206E0000000000000000000000FFAAAAAA280835
:10207E0000FF000000000000000000000000000053
:10208E000000000000000000000000000000000042
:10209E00000000000000007F030C300C037F0000E6
:1020AE00264949493200007F020408107F000001D2
:0820BE00000100010001000116
:102A1E00E4F521F522F523F524F5261225F812000A
:102A2E0026122CDD122B750522E52270020521AE31
:102A3E0021FFE4FCFD7B507AC3F9F8C31222EB5060
:102A4E00E6122D928F26E52665256008852625AF90
:102A5E0025122A7EE4F521F5220524E524700205CF
:102A6E00236404452370C0F523F52412230180B797
:10230100782B7C007D007BFF7A2079BC7E007F0AE0
:102311001221967B007A00792B1224E97BFF7A182F
:10232100799E122C55E52C2430FF122D7EE52E24AA
:1023310030FF122D7E7BFF7A1879A5122C55E530DE
:102341002430FF122D7E7BFF7A1879A7122C55E5D8
:10235100322430FF122D7EE5342430FF122D7E7B96
:10236100FF7A1879A7122C55122D927529008F2A00
:10237100E52A45296024AE297C007D0A122269EFF5
:102381002430FF122D7EAE29AF2A7C007D0A122255
:1023910069ED2430FF122D7E80097BFF7A1879A91F
:1023A100122C557BFF7A1879AB122C557BFF7A18CA
:1023B10079AE122C55E4FBFDFF12283F7B02E4FDB0
:1023C1007F1112283F7BFF7A1879B0753A10E4FD2E
:1023D1007F22122AC9E52C2430FB753F10E4FD7FD2
:1023E1002B1226D8E52E2430FB753F10E4FD7F34F7
:1023F1001226D87BFF7A1879A5753A10E4FD7F3D46
:10240100122AC9E5302430FB753F10E4FD7F4612E6
:1024110026D87B03E4FD7F4F12283F7B017D02E438
:10242100FF12283F7B027D027F1112283F7BFF7A3A
:102431001879B0753A107D027F22122AC9E532243B
:1024410030FB753F107D027F2B1226D8E5342430F6
:10245100FB753F107D027F341226D87BFF7A1879F5
:10246100B2753A107D027F3D122AC97B047D04E4D6
:10247100FF12283F7B057D047F1112283F7BFF7AE5
:102481001879B0753A107D047F22122AC9E52A45D0
:10249100296044AE29AF2A7C007D0A122269EF240B
:1024A10030FFAB07AE29AF2A7C007D0A122269ED0D
:1024B1002430F528E43CF527753F107D047F2A126E
:1024C10026D8AB28753F107D047F321226D87B03B6
:1024D1007D047F3A02283F7BFF7A1879B4753A1060
:0724E1007D047F2A122AC9C5
:0124E80022D1
:0B2D6200EF1FAC0670011E4C70F62243
:100F06000000000000000000002F000000000700A5
:100F1600070000147F147F1400242A7F2A1200621F
:100F260064081323003649552250000005030000CB
:100F360000001C224100000041221C000014083E53
:100F460008140008083E0808000000A06000000819
:100F5600080808080000606000000020100804026D
:100F6600003E5149453E0000427F4000004261512B
:100F76004946002141454B31001814127F100027C5
:100F860045454539003C4A49493000017109050388
:100F960000364949493600064949291E00003636B9
:100FA600000000005636000000081422410000141C
:100FB60014141414000041221408000201510906F9
:100FC60000324959513E007C1211127C007F49497A
:100FD6004936003E41414122007F4141221C007FAB
:100FE60049494941007F09090901003E4149497AB9
:100FF600007F0808087F0000417F41000020404133
:101006003F01007F08142241007F40404040007F9E
:10101600020C027F007F0408107F003E4141413EE2
:10102600007F09090906003E4151215E007F09192A
:1010360029460046494949310001017F0101003F27
:101046004040403F001F2040201F003F4038403FA7
:10105600006314081463000708700807006151490B
:10106600454300007F41410000552A552A5500009E
:1010760041417F000004020102040040404040401C
:10108600000001020400002054545478007F4844B4
:10109600443800384444442000384444487F0038EB
:1010A6005454541800087E0901020018A4A4A47C14
:1010B600007F080404780000447D400000408084DE
:1010C6007D00007F102844000000417F4000007C26
:1010D60004180478007C0804047800384444443832
:1010E60000FC242424180018242418FC007C08047E
:1010F600040800485454542000043F444020003C57
:101106004040207C001C2040201C003C4030403CDD
:10111600004428102844001CA0A0A07C004464546D
:101126004C441414141414140000000000000000B1
:101136000000000000000000000000F800000000B1
:10114600000000333000000000100C06100C0600F2
:10115600000000000000000040C07840C078400059
:10116600043F04043F040400007088FC08300000BB
:10117600001820FF211E0000F008F000E018000013
:1011860000211C031E211E0000F0088870000000CC
:101196001E2123241927211010160E00000000001E
:1011A6000000000000000000000000E0180402003B
:1011B600000000071820400000020418E0000000AC
:1011C6000040201807000000404080F080404000AA
:1011D6000202010F01020200000000F00000000000
:1011E6000101011F010101000000000000000000D4
:1011F60080B0700000000000000000000000000049
:1012060000010101010101010000000000000000D1
:10121600003030000000000000000000806018046C
:10122600006018060100000000E010080810E00049
:10123600000F102020100F00001010F80000000012
:101246000020203F20200000007008080888700059
:1012560000302824222130000030088888483000D9
:101266000018202020110E000000C02010F80000F9
:1012760000070424243F240000F808888808080092
:101286000019212020110E0000E0108888180000A7
:10129600000F112020110E0000380808C838080079
:1012A6000000003F000000000070880808887000F9
:1012B600001C222121221C0000E010080810E0007A
:1012C6000000312222110F00000000C0C000000003
:1012D6000000003030000000000000800000000028
:1012E6000000806000000000000080402010080020
:1012F60000010204081020004040404040404000E9
:1013060004040404040404000008102040800000C3
:101316000020100804020100007048080808F000C8
:101326000000003036010000C030C828E810E00098
:101336000718272423140B000000C038E000000023
:10134600203C23020227382008F88888887000008D
:10135600203F202020110E00C03008080808380061
:10136600071820202010080008F808080810E000D8
:10137600203F202020100F0008F88888E808100079
:10138600203F20202320180008F88888E80810004D
:10139600203F200003000000C03008080838000085
:1013A60007182020221E020008F808000008F80886
:1013B600203F210101213F20000808F8080800000D
:1013C6000020203F2020000000000808F808080040
:1013D600C08080807F00000008F888C028180800B8
:1013E600203F20012638200008F8080000000000F1
:1013F600203F20202020300008F8F800F8F80800E8
:10140600203F003F003F200008F830C00008F808E1
:10141600203F200007183F00E01008080810E000F1
:101426000F10202020100F0008F808080808F00008
:10143600203F210101010000E01008080810E0002B
:101446000F18242438504F0008F8888888887000C0
:10145600203F2000030C3020007088080808380060
:101466000038202121221C00180808F80808180056
:101476000000203F2000000008F808000008F808D7
:10148600001F202020201F000878880000C8380888
:10149600000007380E010000F80800F80008F80000
:1014A600033C0700073C030008186880806818089A
:1014B60020302C03032C30200838C800C838080018
:1014C6000000203F2000000010080808C838080067
:1014D6002038262120201800000000FE020202000B
:1014E6000000007F40404000000C30C000000000BB
:1014F600000000010638C00000020202FE000000E3
:10150600004040407F000000000004020202040088
:1015160000000000000000000000000000000000C5
:1015260080808080808080800002020400000000AD
:1015360000000000000000000000808080800000A5
:101546000019242222223F2008F800808000000093
:10155600003F112020110E00000000808080000056
:10156600000E112020201100000000808088F80065
:10157600000E112020103F20000080808080000097
:10158600001F222222221300008080F088888818FB
:101596000020203F20200000000080808080800006
:1015A600006B94949493600008F80080808000009B
:1015B600203F210000203F20008098980000000076
:1015C6000020203F202000000000008098980000A6
:1015D60000C08080807F000008F8000080808000C6
:1015E600203F24022D302000000808F800000000EB
:1015F6000020203F202000008080808080808000A6
:10160600203F20003F20003F808000808080000037
:10161600203F210000203F200000808080800000C5
:10162600001F202020201F008080008080000000F6
:1016360080FFA12020110E00000000808080800025
:10164600000E112020A0FF80808080008080800016
:1016560020203F2120000100000080808080800043
:101666000033242424241900008080E080800000B8
:101676000000001F20200000808000000080800005
:10168600001F202020103F20808080000080808066
:1016960000010E30080601008080008000808080F6
:1016A6000F300C030C300F0000808000808080001B
:1016B6000020312E0E312000808080000080808046
:1016C60080818E70180601000080808080808000F6
:1016D6000021302C2221300000000000807C020214
:1016E60000000000003F404000000000FF00000036
:1016F60000000000FF0000000002027C80000000E5
:101706000040403F00000000000601010202040400
:1017160000000000000000001060028C0000FE9235
:1017260092929292FE00000000000000000000006D
:10173600000000000000000004047E01407E4242DA
:101746007E427E42427E4000000000000000000013
:1017560000000000000000001060028C00FE929263
:1017660092929292FE00000000000000000000002D
:10177600000000000000000004047E014448507F81
:1017860040407F5048444000000000000000000038
:1017960000000000000000000000FC242424FC25BA
:1017A6002624FC242424040000000000000000007D
:1017B600000000000000000040308F80844C55255A
:1017C6002525554C808080000000000000000000A8
:1017D6000000000000000000060909E6F80C0402FB
:1017E60002020202041E00000000000000000000C9
:1017F6000000000000000000000000071F3020402D
:1018060040404040201000000000000000000000A2
:101816000000000000000000100C4424140405061B
:101826000404142444140C0000000000000000000E
:101836000000000000000000004040414141417F9F
:10184600414141414040000000000000000000000E
:1018560000000000000000004042CC0000FE829222
:1018660092FE929282FE000000000000000000003E
:10187600000000000000000000003F10887F001EEE
:101886001212125E807F00000000000000000000BF
:0818960000000000000000004A
:102C7A00EF4E60157D087C07ED1DAA0470011C4A01
:092C8A0070F6EF1F70EA1E80E7EE
:012C9300221E
:092D6D00D282D281C281C282220D
:072D8600D282C281D281223A
:0B2D0300122BAE122D0EAF04122BAEEF
:052D0E00D282C2822206
:072BA700AC07122D6D7F78D1
:102BAE00C282E4FEEEC3940874809480501BAD077D
:102BBE00530580ED64807004D2818002C281EF25BE
:092BCE00E0FFD282C2820E80DB1E
:012BD70022DB
:0E2D1300122BA7122D0EE4FF122D03022D86A7
:0E2D2100122BA7122D0E7F40122D03022D86BD
:102BD800EF24B0FFEE33FEE4FDFC122BF3E4FDFC22
:0B2BE800FFFE122BF37F10E4FDFCFE4B
:102BF300AB07AA06ED4C6003022D21AF03122D1380
:012C030022AE
:022B0D008F4BEC
:102B0F00E4F9E9FF7E00C394087480948050231287
:102B1F002BD8E4F54CC3E54C948074809480500F0F
:102B2F00AF4B7E007D017C00122BF3054C80E60934
:022B3F0080D044
:012B41002271
:10000300D3EF9400EE940040147D657C18ED1D70D1
:0D001300011CED4C70F7EF1F70E61E80E33E
:0100200022BD
:102C9400EF1FAA0670011E4A600FE4FDEDC3947B8A
:092CA4007480948050EA0D80F365
:012CAD002204
:102C0400A907ED24B0FFE433FEE4FDFC122BF3E945
:102C140054F0C4540F7E004410FFE4FDFC122BF367
:0C2C2400E9540FFF7E00E4FDFC022BF3DE
:102CC6007F8D122BEFE4FDFC7F14FE122BF3E4FD47
:072CD600FC7FAFFE022BF3AF
:102CF200E4FDFC7F8D122BE9E4FDFC7FAEFE022B8E
:012D0200F3DD
:102B7500E4F9E9FF7E00C394087480948050221222
:102B85002BD8E4F527C3E527948074809480500EF4
:102B95007D017C00E4FFFE122BF3052780E7098009
:012BA500D15E
:012BA600220C
:102B4200E4F9E9FF7E00C394087480948050231254
:102B52002BD8E4F51FC3E51F948074809480500F36
:102B62007D017C007F017E00122BF3051F80E609A8
:022B720080D011
:012B7400223E
:0426D8008F3C8D3D69
:1026DC00E4F540F9EB24E0F540D3EF947F7480945B
:1026EC00804007E4F53C053D053DE53F6410707AFC
:1026FC00AD3DAF3C122C04E4F9E9C394087480940A
:10270C0080502975F010E540A429F582E435F0F5E8
:10271C0083E582242EF582E5833411F583E493FF5F
:10272C007E007D017C00122BF30980CDE53D04FD7C
:10273C00AF3C122C04E4F9E9C394087480948050E3
:10274C006575F010E540A429F582E435F0F583E5D4
:10275C00822436F582E5833411F583E493FF7E0001
:10276C007D017C00122BF30980CDAD3DAF3C122CCA
:10277C0004E4F9E9C3940674809480502975F0063A
:10278C00E540A42406F582E5F0340FF583E58229B3
:10279C00F582E43583F583E493FF7E007D017C00B4
:0627AC00122BF30980CDA1
:0127B2002204
:042CAE008F4DA90598
:102CB2007F017E00AD0119ED6009AD4D7C0012224D
:032CC2000280F19C
:012CC50022EC
:0828C3008F138D148A158B168A
:1028CB00E4F51BF519E519C395175065C3E5179585
:1028DB001914FD7F0A122CAEAC15AD16CFCDCFCE91
:1028EB00CCCE1222147C007D0A1222148D1AE51B09
:1028FB007023E51714FFE519C39F5019E51A7012E1
:10290B00E518C3138519F0A42513FF85183F7B2009
:10291B008016751B01E518C3138519F0A42513FF49
:10292B00E51A2430FB85183FAD141226D805198003
:01293B009407
:01293C002278
:0A2AC9008F358D368B378A38893936
:102AD300E4F53BAB37AA38A939853B8275830012ED
:102AE30021D5FB6024853A3FAD36AF351226D87425
:102AF300082535F535D39478748094804007E4F540
:092B03003505360536053B80CA94
:012B0C0022A6
:06283F008F358D368B374A
:10284500E4F538122C04E4F9E9C3941074809480FB
:10285500502B75F040E537A4241EF582E5F03417BA
:10286500F583E58229F582E43583F583E493FF7EDC
:10287500007D017C00122BF305380980CBE5360479
:10288500FDAF35122C04E4F9E9C3941074809480EB
:10289500502B75F040E537A4243EF582E5F034175A
:1028A500F583E58229F582E43583F583E493FF7E9C
:0D28B500007D017C00122BF305380980CB5B
:0128C20022F3
:0429B5008F088B0AF2
:1029B900E4F50FF510E50B5407700BE50B13131332
:1029C900541FF512800AE50B131313541F04F51253
:1029D9008D12E512C3950B503BAD12AF08122C04B2
:1029E900850811E511C3950A5026AB0CAA0DA90E4D
:1029F9000510E510AE0F7002050F14F5828E8312D3
:102A090021D5FF7E007D017C00122BF3051180D3B7
:042A1900051280BE64
:012A1D002296
:1025F800E4FDFC7FAEFE122BE2E4FDFC7F40FE1200
:102608002BF3E4FDFC7FB0FE122BF3E4FDFC7F818D
:10261800FE122BF3E4FDFC7FFFFE122BF3E4FDFC1E
:102628007FA1FE122BF3E4FDFC7FA6FE122BF3E440
:10263800FDFC7FA8FE122BF3E4FDFC7F3FFE122B6E
:10264800F3E4FDFC7FC8FE122BF3E4FDFC7FD3FE10
:10265800122BF3E4FDFCFFFE122BF3E4FDFC7FD507
:10266800FE122BF3E4FDFC7F80FE122BF3E4FDFC4D
:102678007FD8FE122BF3E4FDFC7F05FE122BF3E45A
:10268800FDFC7FD9FE122BF3E4FDFC7FF1FE122B3B
:10269800F3E4FDFC7FDAFE122BF3E4FDFC7F12FE6F
:1026A800122BF3E4FDFC7FDBFE122BF3E4FDFC7F31
:1026B80030FE122BF3E4FDFC7F8DFE122BF3E4FDBC
:1026C800FC7F14FE122BF3E4FDFC7FAFFE022BF31C
:042D8D007F57DFFE8F
:012D9100221F
:0C2D2F007F017EEA7D71DDFEDEFCDFFA34
:012D3B002275
:0C2D3C007F2E7E997DF5DDFEDEFCDFFAC7
:012D48002268
:0624E9008B358A368937AD
:1024EF00E4FAF582F583C280122D2FD280122D8D42
:1024FF007D50308006AF051DEF70F7ED7002D28072
:10250F007DFA208006AF051DEF70F7ED7002D280C7
:10251F007DFA308006AF051DEF70F7ED7002D280A7
:10252F00E4FBEBC39405748094805040E4FCECC34F
:10253F00940874809480502B7D96208006AF051DE3
:10254F00EF70F7ED7002D280E4FD3080040DED7076
:10255F00F9EA25E0FAEDD3941E7480948040010AC5
:10256F000C80CB74412BF8A6020B80B6122D8D1266
:10257F002D8DD280E4FCECC39404748094805011B0
:10258F0074412CF8E62582F582E43583F5830C80BF
:10259F00E5AF82EF65457050E54375F00A84FFABF8
:1025AF0035AA36A937E48FF012229FE54375F00A5A
:1025BF0084AB35AA36A937900002E41222BEE54457
:1025CF0075F00A84900004E41222BEE54175F00A0A
:1025DF0084FF900006E48FF01222BEE54175F00AE9
:0825EF0084900008E41222BEF2
:0125F70022C1
:10004600FDFD30034017003416012B026600260022
:100056002400230023001A00DA042300B509220035
:1000660000001E00FFFFFFFF012222222222222380
:10007600222222122222212122124222212222225D
:100086002212222222222222221115012222222299
:10009600222222222222122222211122124222224C
:1000A600222222222222222222222221121600008B
:1000B600F00000000000000000000000000000004A
:1000C600000000000000000000000000000000002A
:1000D600000000000000000000000000000000001A
:1000E600000000000000000000000000000000000A
:1000F60000000000000000000000000000000000FA
:1001060000000000000000000000000000000000E9
:1001160000000000000000000000000000000000D9
:1001260000000000000008750086DFDFFDFD3003DB
:10013600401700341601290267002400220025001A
:1001460021001C00DA042300B509230000001F006B
:10015600FFFFFFFF01221221222223222222221246
:10016600222221212212422221222222221222226C
:100176002222222222112501221221222222222299
:10018600222212222221112212422222222222225B
:10019600222222222222222112260000F000000022
:1001A6000000000000000000000000000000000049
:1001B6000000000000000000000000000000000039
:1001C6000000000000000000000000000000000029
:1001D6000000000000000000000000000000000019
:1001E6000000000000000000000000000000000009
:1001F60000000000000000000000000000000000F9
:1002060000000000000000000000000000000000E8
:10021600000007763FE7DFDFFDFD300340170034BF
:1002260015012B026600250025002300DB042300B0
:1002360023001A00B709230000001D00FFFFFFFF7F
:1002460001221221212222222222221222222121CD
:100256002212322221222222221222222222242287
:1002660021112501221221212222222222221222BA
:10027600222111221232222222222222222222226A
:100286002222222221260000F000000000000000A9
:100296000000000000000000000000000000000058
:1002A6000000000000000000000000000000000048
:1002B6000000000000000000000000000000000038
:1002C6000000000000000000000000000000000028
:1002D6000000000000000000000000000000000018
:1002E6000000000000000000000000000000000008
:1002F6000000000000000000000000000000017681
:1003060000FFDFDFFDFD30034017003415012A0230
:100316006700240022002500DA042300B609220023
:1003260000001E00FFFFFFFFFFFFFFFF012212215B
:1003360022122222222222122222212122123222B9
:1003460021222222221222222222222222221401C7
:1003560022122122122222222222122222211122BA
:100366001232222222222222222222222222222168
:1003760021250000F0000000000000000000000041
:100386000000000000000000000000000000000067
:100396000000000000000000000000000000000057
:1003A6000000000000000000000000000000000047
:1003B6000000000000000000000000000000000037
:1003C6000000000000000000000000000000000027
:1003D6000000000000000000000000000000000017
:1003E60000000000000000000000067601ACDFDF20
:1003F600FDFD300340170034170129026700240071
:1004060023002300DA042300B809220000001E009E
:10041600FFFFFFFFFFFFFFFF012212212112222211
:1004260022222212222221212212322221222222B9
:1004360022122222222222222122140122122121E8
:1004460012222222222212222221112212322222B8
:1004560022222222222222222222222211250000C8
:10046600F000000000000000000000000000000096
:100476000000000000000000000000000000000076
:100486000000000000000000000000000000000066
:100496000000000000000000000000000000000056
:1004A6000000000000000000000000000000000046
:1004B6000000000000000000000000000000000036
:1004C6000000000000000000000000000000000026
:1004D60000000000000006763E1CDFDFFDFD300355
:1004E6004017003416012902670024002300230068
:1004F600DB042300B609230000001E00FFFFFFFFF8
:10050600FFFFFFFF01221221222122222222221294
:1005160022222121221232222122222222122222C8
:1005260022222222221214012212212221222222F6
:1005360022221222222111221232222222222222B7
:10054600222222222222222111250000F000000070
:100556000000000000000000000000000000000095
:100566000000000000000000000000000000000085
:100576000000000000000000000000000000000075
:100586000000000000000000000000000000000065
:100596000000000000000000000000000000000055
:1005A6000000000000000000000000000000000045
:1005B6000000000000000000000000000000000035
:1005C6000000077600C8DFDFFDFD3003401700346A
:1005D600170129026500260022002500DA042500FD
:1005E60021001C00B709240000001E00FFFFFFFFCA
:1005F600012212212121222222222212222221211B
:1006060022123222212222224212222222222222B5
:100616002112150122122121212222222222122216
:100626002221112212322222224222222222222296
:100636002222222222160000F00000000000000004
:1006460000000000000000000000000000000000A4
:100656000000000000000000000000000000000094
:100666000000000000000000000000000000000084
:100676000000000000000000000000000000000074
:100686000000000000000000000000000000000064
:100696000000000000000000000000000000000054
:1006A60000000000000000000000000000000276CC
:1006B60000F6DFDFFDFD3003401700341601290286
:1006C6006800230024002400D8042500B60922006F
:1006D60023001A0000002000FFFFFFFF0122122165
:1006E6002211222222222212222221212212322207
:1006F6002122222222122222222222222221140115
:100706002212212211222222222212222221112207
:1007160012322222222222252222222222222221B1
:1007260022160000F000000000000000000000009B
:1007360000000000000000000000000000000000B3
:1007460000000000000000000000000000000000A3
:100756000000000000000000000000000000000093
:100766000000000000000000000000000000000083
:100776000000000000000000000000000000000073
:100786000000000000000000000000000000000063
:1007960000000000000000000000007600A8DFDF77
:1007A600FDFD30034017003416012B0267002400BC
:1007B60023002300DA042300B709230000001F00EA
:1007C600FFFFFFFFFFFFFFFF01221221211122225F
:1007D6002222221222222121221232222122222206
:1007E6002212222222222222212114012212212136
:1007F6001122222222221222222111221232222206
:100806002222222222222222222222221215000023
:10081600F0000000000000000000000000000000E2
:1008260000000000000000000000000000000000C2
:1008360000000000000000000000000000000000B2
:1008460000000000000000000000000000000000A2
:100856000000000000000000000000000000000092
:100866000000000000000000000000000000000082
:100876000000000000000000000000000000000072
:1008860000000000000001763E2CDFDFFDFD300396
:100896004017003416012A026800250024002300B0
:1008A600DA042300B609230000001D00FFFFFFFF46
:1008B600FFFFFFFF012212212222122222222212F0
:1008C6002222212122123222212222222212222215
:1008D6002222222222111401221221222212222253
:1008E6002222122222211122123222222222222204
:1008F600222222222222222112150000F0000000CC
:1009060000000000000000000000000000000000E1
:1009160000000000000000000000000000000000D1
:1009260000000000000000000000000000000000C1
:1009360000000000000000000000000000000000B1
:1009460000000000000000000000000000000000A1
:100956000000000000000000000000000000000091
:100966000000000000000000000000000000000081
:10097600000000763FE4DFDFFDFD30034017003462
:1009860015012B026600270023002300DB04230049
:10099600B909220023001A0000002000FFFFFFFF14
:1009A6000122122121221222222222122222212176
:1009B6002212322221222222221222222222222222
:1009C6002111140122122121221222222222122274
:1009D60022211122123222222252222222222222D3
:1009E6002222222221160000F00000000000000052
:1009F60000000000000000000000000000000000F1
:100A060000000000000000000000000000000000E0
:100A160000000000000000000000000000000000D0
:100A260000000000000000000000000000000000C0
:100A360000000000000000000000000000000000B0
:100A460000000000000000000000000000000000A0
:100A56000000000000000000000000000000087612
:100A66003F28DFDFFDFD3003401700341501290262
:100A76006700260024002300DB042300B6092300B8
:100A860000001F00FFFFFFFFFFFFFFFF01221221F3
:100A96002212122222222212222221212212322262
:100AA6002122222222122222222222222222240150
:100AB6002212212212122222222212222221112263
:100AC6001232222222222222222222222222222101
:100AD60021150000000000000000000000000000DA
:100AE6000000000000000000000000000000000000
:100AF60000000000000000000000000000000000F0
:100B060000000000000000000000000000000000DF
:100B160000000000000000000000000000000000CF
:100B260000000000000000000000000000000000BF
:100B360000000000000000000000000000000000AF
:100B4600000000000000000000000000004CDFDF95
:100B5600FDFD30034017003415012C026700240008
:100B660025002300DB042300B809230000001E0033
:100B7600FFFFFFFFFFFFFFFF0122122121121222BA
:100B86002222221222222121221232222122222252
:100B96002212222222222222212224012212212171
:100BA6001212222222221222222111221232222261
:100BB6002222222222222222222222221115000071
:100BC600F00000000000000000000000000000002F
:100BD600000000000000000000000000000000000F
:100BE60000000000000000000000000000000000FF
:100BF60000000000000000000000000000000000EF
:100C060000000000000000000000000000000000DE
:100C160000000000000000000000000000000000CE
:100C260000000000000000000000000000000000BE
:100C3600000000000000077601BCDFDFFDFD300389
:100C460040170034160129026700260023002300FE
:100C5600D9042500B609230000001E00FFFFFFFF90
:100C6600FFFFFFFF0122122122211222222222123D
:100C76002222212122123222212222222212222261
:100C8600222222222212240122122122211222228F
:100C96002222122222211122123222222222222250
:100CA600222222222222222111150000F000000019
:100CB600000000000000000000000000000000002E
:100CC600000000000000000000000000000000001E
:100CD600000000000000000000000000000000000E
:100CE60000000000000000000000000000000000FE
:100CF60000000000000000000000000000000000EE
:100D060000000000000000000000000000000000DD
:100D160000000000000000000000000000000000CD
:100D2600000000760144DFDFFDFD3003401700348C
:100D360015012B026500250022002500D804250098
:100D4600B40925002500190000001D00FFFFFFFF64
:100D560001221221212112222222221222222121C3
:100D6600221232222122222222122222222222226E
:100D760021122401221221212112222222221222B0
:100D8600222111221232222222222222222222224F
:100D96002222522222260000F0000000000000005D
:100DA600000000000000000000000000000000003D
:100DB600000000000000000000000000000000002D
:100DC600000000000000000000000000000000001D
:100DD600000000000000000000000000000000000D
:100DE60000000000000000000000000000000000FD
:100DF60000000000000000000000000000000000ED
:100E06000000000000000000000000000000007666
:100E1600004EDFDFFDFD30034017003414012B02C6
:100E26006700240022002500DA042400B609230006
:100E360000001E00FFFFFFFFFFFFFFFF0122122140
:100E460022111222222222122222212122123222AF
:100E5600212222222212222222222222222124019D
:100E660022122122111222222222122222211122B0
:100E7600123222222222222222222222222222214D
:100E860022250000F0000000000000000000000025
:100E9600000000000000000000000000000000004C
:100EA600000000000000000000000000000000003C
:100EB600000000000000000000000000000000002C
:100EC600000000000000000000000000000000001C
:100ED600000000000000000000000000000000000C
:100EE60000000000000000000000000000000000FC
:100EF60000000000000000000000027600E6DFDFD0
:10002600E5A2543FF5A2759850758E40E4F58975A2
:0C0036008BE0758DFED28ED2ACD2AF22D2
:03002300022D4962
:0D2D4900309802C298309904C299C202323B
:082D76002002FDD2028F992218
:102C30008B1C8A1D891EAB1CAA1DA91E1221BC60FB
:102C400013051EE51E7002051D14F91221BCFF12AA
:052C50002D7680E22258
:102A7E00EFFDC39410748094804010D3ED941E74B7
:102A8E008094805006EF24F1FE8002E4FEE4FDFC0B
:102A9E0075F0ECEEA42446F582E5F03400F583E5FE
:102AAE00822DF582E5833CF583E493FF122D760D9E
:0A2ABE00BD00010CED64EC4C70D675
:012AC80022EB
:0B2D5600C1000246000003480000001E
:102CDD0053BAFE759A5075D7E075D6FE438E1475AE
:052CED00AF01D2AF228F
:0300430002293D52
:0F293D00C0E0C0D075D000C000C004C005C00706
:10294C00E59A30E04D539AFEAF9B30003ED3E547FD
:10295C009401E546648094804022E548FD9410740F
:10296C00809480400AD3ED941E748094804003754B
:10297C004800C200754600754700800F7448254713
:10298C00F8A6070547E54770020546EF64FD70029F
:0C299C00D200E59A30E105539AFDC2011B
:0D29A800D007D005D004D000D0D0D0E03250
:082D7E002001FDD2018F9B2210
:102C55008B358A368937AB35AA36A9371221BC6040
:102C6500130537E5377002053614F91221BCFF123A
:052C75002D7E80E2222B
:032D9200AF482225
:1027BF00022A1EE493A3F8E493A34003F68001F2E8
:1027CF0008DFF48029E493A3F85407240CC8C3331B
:1027DF00C4540F4420C8834004F456800146F6DFEA
:1027EF00E4800B0102040810204080902D56E47EF7
:1027FF00019360BCA3FF543F30E509541FFEE493DF
:10280F00A360010ECF54C025E060A840B8E493A3A5
:10281F00FAE493A3F8E493A3C8C582C8CAC583CAD0
:10282F00F0A3C8C582C8CAC583CADFE9DEE780BE88
:012D61000071
:1020C600E709F608DFFA8046E709F208DFFA803EFC
:1020D60088828C83E709F0A3DFFA8032E309F608E9
:1020E600DFFA8078E309F208DFFA807088828C8351
:1020F600E309F0A3DFFA806489828A83E0A3F60805
:10210600DFFA805889828A83E0A3F208DFFA804CDE
:1021160080D280FA80C680D4806980F280338010B5
:1021260080A680EA809A80A880DA80E280CA80331E
:1021360089828A83ECFAE493A3C8C582C8CCC58396
:10214600CCF0A3C8C582C8CCC583CCDFE9DEE78066
:102156000D89828A83E493A3F608DFF9ECFAA9F0E5
:10216600EDFB2289828A83ECFAE0A3C8C582C8CC3B
:10217600C583CCF0A3C8C582C8CCC583CCDFEADE54
:10218600E880DB89828A83E493A3F208DFF980CCB6
:1021960088F0EF60010E4E60C388F0ED2402B404AF
:1021A6000050B9F582EB2402B4040050AF23234556
:0621B60082239021167344
:1021BC00BB010689828A83E0225002E722BBFE0221
:0921CC00E32289828A83E4932254
:1021D500BB010CE58229F582E5833AF583E02250BF
:1021E50006E92582F8E622BBFE06E92582F8E22209
:0D21F500E58229F582E5833AF583E4932223
:10220200EF8DF0A4A8F0CF8CF0A428CE8DF0A42EF0
:02221200FE22AA
:10221400BC000BBE0029EF8DF084FFADF022E4CCAE
:10222400F875F008EF2FFFEE33FEEC33FCEE9DEC77
:10223400984005FCEE9DFE0FD5F0E9E4CEFD22EDBD
:10224400F8F5F0EE8420D21CFEADF075F008EF2F07
:10225400FFED33FD4007985006D5F0F222C398FDF8
:052264000FD5F0EA2295
:10226900C2D5EC30E709B2D5E4C39DFDE49CFCEE90
:1022790030E715B2D5E4C39FFFE49EFE122214C3D2
:10228900E49DFDE49CFC800312221430D507C3E4CD
:062299009FFFE49EFE22FF
:10229F00BB010A89828A83F0E5F0A3F0225006F78A
:0F22AF0009A7F01922BBFE06F3E5F009F3192287
:1022BE00F8BB0111E58229F582E5833AF583E8F052
:1022CE00E5F0A3F0225009E92582C8F608A6F0220F
:0D22DE00BBFE09E92582C8F2E5F008F222F6
:1022EB00EB9FF5F0EA9E42F0E99D42F0EC6480C86A
:0622FB0064809845F0220A
:00000001FF
